{
  "_format": "hh-sol-artifact-1",
  "contractName": "BellyNft",
  "sourceName": "contracts/BellyNft.sol",
  "abi": [
    {
      "inputs": [],
      "stateMutability": "nonpayable",
      "type": "constructor"
    },
    {
      "inputs": [],
      "name": "NotContractAddress",
      "type": "error"
    },
    {
      "anonymous": false,
      "inputs": [
        {
          "indexed": true,
          "internalType": "address",
          "name": "account",
          "type": "address"
        },
        {
          "indexed": true,
          "internalType": "address",
          "name": "operator",
          "type": "address"
        },
        {
          "indexed": false,
          "internalType": "bool",
          "name": "approved",
          "type": "bool"
        }
      ],
      "name": "ApprovalForAll",
      "type": "event"
    },
    {
      "anonymous": false,
      "inputs": [
        {
          "indexed": true,
          "internalType": "address",
          "name": "sender",
          "type": "address"
        },
        {
          "indexed": true,
          "internalType": "uint256",
          "name": "recipeId",
          "type": "uint256"
        }
      ],
      "name": "Crafted",
      "type": "event"
    },
    {
      "anonymous": false,
      "inputs": [
        {
          "indexed": false,
          "internalType": "address",
          "name": "account",
          "type": "address"
        }
      ],
      "name": "Paused",
      "type": "event"
    },
    {
      "anonymous": false,
      "inputs": [
        {
          "indexed": true,
          "internalType": "bytes32",
          "name": "role",
          "type": "bytes32"
        },
        {
          "indexed": true,
          "internalType": "bytes32",
          "name": "previousAdminRole",
          "type": "bytes32"
        },
        {
          "indexed": true,
          "internalType": "bytes32",
          "name": "newAdminRole",
          "type": "bytes32"
        }
      ],
      "name": "RoleAdminChanged",
      "type": "event"
    },
    {
      "anonymous": false,
      "inputs": [
        {
          "indexed": true,
          "internalType": "bytes32",
          "name": "role",
          "type": "bytes32"
        },
        {
          "indexed": true,
          "internalType": "address",
          "name": "account",
          "type": "address"
        },
        {
          "indexed": true,
          "internalType": "address",
          "name": "sender",
          "type": "address"
        }
      ],
      "name": "RoleGranted",
      "type": "event"
    },
    {
      "anonymous": false,
      "inputs": [
        {
          "indexed": true,
          "internalType": "bytes32",
          "name": "role",
          "type": "bytes32"
        },
        {
          "indexed": true,
          "internalType": "address",
          "name": "account",
          "type": "address"
        },
        {
          "indexed": true,
          "internalType": "address",
          "name": "sender",
          "type": "address"
        }
      ],
      "name": "RoleRevoked",
      "type": "event"
    },
    {
      "anonymous": false,
      "inputs": [
        {
          "indexed": true,
          "internalType": "address",
          "name": "operator",
          "type": "address"
        },
        {
          "indexed": true,
          "internalType": "address",
          "name": "from",
          "type": "address"
        },
        {
          "indexed": true,
          "internalType": "address",
          "name": "to",
          "type": "address"
        },
        {
          "indexed": false,
          "internalType": "uint256[]",
          "name": "ids",
          "type": "uint256[]"
        },
        {
          "indexed": false,
          "internalType": "uint256[]",
          "name": "values",
          "type": "uint256[]"
        }
      ],
      "name": "TransferBatch",
      "type": "event"
    },
    {
      "anonymous": false,
      "inputs": [
        {
          "indexed": true,
          "internalType": "address",
          "name": "operator",
          "type": "address"
        },
        {
          "indexed": true,
          "internalType": "address",
          "name": "from",
          "type": "address"
        },
        {
          "indexed": true,
          "internalType": "address",
          "name": "to",
          "type": "address"
        },
        {
          "indexed": false,
          "internalType": "uint256",
          "name": "id",
          "type": "uint256"
        },
        {
          "indexed": false,
          "internalType": "uint256",
          "name": "value",
          "type": "uint256"
        }
      ],
      "name": "TransferSingle",
      "type": "event"
    },
    {
      "anonymous": false,
      "inputs": [
        {
          "indexed": false,
          "internalType": "string",
          "name": "value",
          "type": "string"
        },
        {
          "indexed": true,
          "internalType": "uint256",
          "name": "id",
          "type": "uint256"
        }
      ],
      "name": "URI",
      "type": "event"
    },
    {
      "anonymous": false,
      "inputs": [
        {
          "indexed": false,
          "internalType": "address",
          "name": "account",
          "type": "address"
        }
      ],
      "name": "Unpaused",
      "type": "event"
    },
    {
      "inputs": [],
      "name": "DEFAULT_ADMIN_ROLE",
      "outputs": [
        {
          "internalType": "bytes32",
          "name": "",
          "type": "bytes32"
        }
      ],
      "stateMutability": "view",
      "type": "function"
    },
    {
      "inputs": [],
      "name": "MINTER_ROLE",
      "outputs": [
        {
          "internalType": "bytes32",
          "name": "",
          "type": "bytes32"
        }
      ],
      "stateMutability": "view",
      "type": "function"
    },
    {
      "inputs": [
        {
          "internalType": "address",
          "name": "account",
          "type": "address"
        },
        {
          "internalType": "uint256",
          "name": "id",
          "type": "uint256"
        }
      ],
      "name": "balanceOf",
      "outputs": [
        {
          "internalType": "uint256",
          "name": "",
          "type": "uint256"
        }
      ],
      "stateMutability": "view",
      "type": "function"
    },
    {
      "inputs": [
        {
          "internalType": "address[]",
          "name": "accounts",
          "type": "address[]"
        },
        {
          "internalType": "uint256[]",
          "name": "ids",
          "type": "uint256[]"
        }
      ],
      "name": "balanceOfBatch",
      "outputs": [
        {
          "internalType": "uint256[]",
          "name": "",
          "type": "uint256[]"
        }
      ],
      "stateMutability": "view",
      "type": "function"
    },
    {
      "inputs": [
        {
          "internalType": "address",
          "name": "account",
          "type": "address"
        },
        {
          "internalType": "uint256",
          "name": "id",
          "type": "uint256"
        },
        {
          "internalType": "uint256",
          "name": "value",
          "type": "uint256"
        }
      ],
      "name": "burn",
      "outputs": [],
      "stateMutability": "nonpayable",
      "type": "function"
    },
    {
      "inputs": [
        {
          "internalType": "address",
          "name": "account",
          "type": "address"
        },
        {
          "internalType": "uint256[]",
          "name": "ids",
          "type": "uint256[]"
        },
        {
          "internalType": "uint256[]",
          "name": "values",
          "type": "uint256[]"
        }
      ],
      "name": "burnBatch",
      "outputs": [],
      "stateMutability": "nonpayable",
      "type": "function"
    },
    {
      "inputs": [
        {
          "internalType": "uint256",
          "name": "recipeId",
          "type": "uint256"
        }
      ],
      "name": "craft",
      "outputs": [
        {
          "internalType": "bytes",
          "name": "",
          "type": "bytes"
        }
      ],
      "stateMutability": "payable",
      "type": "function"
    },
    {
      "inputs": [],
      "name": "craftingContract",
      "outputs": [
        {
          "internalType": "address",
          "name": "",
          "type": "address"
        }
      ],
      "stateMutability": "view",
      "type": "function"
    },
    {
      "inputs": [
        {
          "internalType": "uint256",
          "name": "id",
          "type": "uint256"
        }
      ],
      "name": "exists",
      "outputs": [
        {
          "internalType": "bool",
          "name": "",
          "type": "bool"
        }
      ],
      "stateMutability": "view",
      "type": "function"
    },
    {
      "inputs": [
        {
          "internalType": "bytes32",
          "name": "role",
          "type": "bytes32"
        }
      ],
      "name": "getRoleAdmin",
      "outputs": [
        {
          "internalType": "bytes32",
          "name": "",
          "type": "bytes32"
        }
      ],
      "stateMutability": "view",
      "type": "function"
    },
    {
      "inputs": [
        {
          "internalType": "bytes32",
          "name": "role",
          "type": "bytes32"
        },
        {
          "internalType": "address",
          "name": "account",
          "type": "address"
        }
      ],
      "name": "grantRole",
      "outputs": [],
      "stateMutability": "nonpayable",
      "type": "function"
    },
    {
      "inputs": [
        {
          "internalType": "bytes32",
          "name": "role",
          "type": "bytes32"
        },
        {
          "internalType": "address",
          "name": "account",
          "type": "address"
        }
      ],
      "name": "hasRole",
      "outputs": [
        {
          "internalType": "bool",
          "name": "",
          "type": "bool"
        }
      ],
      "stateMutability": "view",
      "type": "function"
    },
    {
      "inputs": [
        {
          "internalType": "address",
          "name": "account",
          "type": "address"
        },
        {
          "internalType": "address",
          "name": "operator",
          "type": "address"
        }
      ],
      "name": "isApprovedForAll",
      "outputs": [
        {
          "internalType": "bool",
          "name": "",
          "type": "bool"
        }
      ],
      "stateMutability": "view",
      "type": "function"
    },
    {
      "inputs": [
        {
          "internalType": "address",
          "name": "account",
          "type": "address"
        },
        {
          "internalType": "uint256",
          "name": "id",
          "type": "uint256"
        },
        {
          "internalType": "uint256",
          "name": "amount",
          "type": "uint256"
        },
        {
          "internalType": "bytes",
          "name": "data",
          "type": "bytes"
        }
      ],
      "name": "mint",
      "outputs": [],
      "stateMutability": "nonpayable",
      "type": "function"
    },
    {
      "inputs": [
        {
          "internalType": "address",
          "name": "to",
          "type": "address"
        },
        {
          "internalType": "uint256[]",
          "name": "ids",
          "type": "uint256[]"
        },
        {
          "internalType": "uint256[]",
          "name": "amounts",
          "type": "uint256[]"
        },
        {
          "internalType": "bytes",
          "name": "data",
          "type": "bytes"
        }
      ],
      "name": "mintBatch",
      "outputs": [],
      "stateMutability": "nonpayable",
      "type": "function"
    },
    {
      "inputs": [],
      "name": "name",
      "outputs": [
        {
          "internalType": "string",
          "name": "",
          "type": "string"
        }
      ],
      "stateMutability": "view",
      "type": "function"
    },
    {
      "inputs": [
        {
          "internalType": "address",
          "name": "",
          "type": "address"
        },
        {
          "internalType": "address",
          "name": "",
          "type": "address"
        },
        {
          "internalType": "uint256[]",
          "name": "",
          "type": "uint256[]"
        },
        {
          "internalType": "uint256[]",
          "name": "",
          "type": "uint256[]"
        },
        {
          "internalType": "bytes",
          "name": "",
          "type": "bytes"
        }
      ],
      "name": "onERC1155BatchReceived",
      "outputs": [
        {
          "internalType": "bytes4",
          "name": "",
          "type": "bytes4"
        }
      ],
      "stateMutability": "nonpayable",
      "type": "function"
    },
    {
      "inputs": [
        {
          "internalType": "address",
          "name": "",
          "type": "address"
        },
        {
          "internalType": "address",
          "name": "",
          "type": "address"
        },
        {
          "internalType": "uint256",
          "name": "",
          "type": "uint256"
        },
        {
          "internalType": "uint256",
          "name": "",
          "type": "uint256"
        },
        {
          "internalType": "bytes",
          "name": "",
          "type": "bytes"
        }
      ],
      "name": "onERC1155Received",
      "outputs": [
        {
          "internalType": "bytes4",
          "name": "",
          "type": "bytes4"
        }
      ],
      "stateMutability": "nonpayable",
      "type": "function"
    },
    {
      "inputs": [],
      "name": "pause",
      "outputs": [],
      "stateMutability": "nonpayable",
      "type": "function"
    },
    {
      "inputs": [],
      "name": "paused",
      "outputs": [
        {
          "internalType": "bool",
          "name": "",
          "type": "bool"
        }
      ],
      "stateMutability": "view",
      "type": "function"
    },
    {
      "inputs": [],
      "name": "recipes",
      "outputs": [
        {
          "internalType": "contract IRecipes",
          "name": "",
          "type": "address"
        }
      ],
      "stateMutability": "view",
      "type": "function"
    },
    {
      "inputs": [
        {
          "internalType": "contract IERC20",
          "name": "token",
          "type": "address"
        }
      ],
      "name": "reclaimFungibleToken",
      "outputs": [],
      "stateMutability": "nonpayable",
      "type": "function"
    },
    {
      "inputs": [
        {
          "internalType": "address",
          "name": "account",
          "type": "address"
        },
        {
          "internalType": "contract IERC1155",
          "name": "token",
          "type": "address"
        },
        {
          "internalType": "uint256[]",
          "name": "ids",
          "type": "uint256[]"
        },
        {
          "internalType": "bytes",
          "name": "data",
          "type": "bytes"
        }
      ],
      "name": "reclaimTokenBatch",
      "outputs": [],
      "stateMutability": "nonpayable",
      "type": "function"
    },
    {
      "inputs": [
        {
          "internalType": "bytes32",
          "name": "role",
          "type": "bytes32"
        },
        {
          "internalType": "address",
          "name": "account",
          "type": "address"
        }
      ],
      "name": "renounceRole",
      "outputs": [],
      "stateMutability": "nonpayable",
      "type": "function"
    },
    {
      "inputs": [
        {
          "internalType": "bytes32",
          "name": "role",
          "type": "bytes32"
        },
        {
          "internalType": "address",
          "name": "account",
          "type": "address"
        }
      ],
      "name": "revokeRole",
      "outputs": [],
      "stateMutability": "nonpayable",
      "type": "function"
    },
    {
      "inputs": [
        {
          "internalType": "address",
          "name": "from",
          "type": "address"
        },
        {
          "internalType": "address",
          "name": "to",
          "type": "address"
        },
        {
          "internalType": "uint256[]",
          "name": "ids",
          "type": "uint256[]"
        },
        {
          "internalType": "uint256[]",
          "name": "amounts",
          "type": "uint256[]"
        },
        {
          "internalType": "bytes",
          "name": "data",
          "type": "bytes"
        }
      ],
      "name": "safeBatchTransferFrom",
      "outputs": [],
      "stateMutability": "nonpayable",
      "type": "function"
    },
    {
      "inputs": [
        {
          "internalType": "address",
          "name": "from",
          "type": "address"
        },
        {
          "internalType": "address",
          "name": "to",
          "type": "address"
        },
        {
          "internalType": "uint256",
          "name": "id",
          "type": "uint256"
        },
        {
          "internalType": "uint256",
          "name": "amount",
          "type": "uint256"
        },
        {
          "internalType": "bytes",
          "name": "data",
          "type": "bytes"
        }
      ],
      "name": "safeTransferFrom",
      "outputs": [],
      "stateMutability": "nonpayable",
      "type": "function"
    },
    {
      "inputs": [
        {
          "internalType": "address",
          "name": "operator",
          "type": "address"
        },
        {
          "internalType": "bool",
          "name": "approved",
          "type": "bool"
        }
      ],
      "name": "setApprovalForAll",
      "outputs": [],
      "stateMutability": "nonpayable",
      "type": "function"
    },
    {
      "inputs": [
        {
          "internalType": "address",
          "name": "addr",
          "type": "address"
        }
      ],
      "name": "setCraftingContract",
      "outputs": [],
      "stateMutability": "nonpayable",
      "type": "function"
    },
    {
      "inputs": [
        {
          "internalType": "address",
          "name": "addr",
          "type": "address"
        }
      ],
      "name": "setRecipesContract",
      "outputs": [],
      "stateMutability": "nonpayable",
      "type": "function"
    },
    {
      "inputs": [
        {
          "internalType": "string",
          "name": "newuri",
          "type": "string"
        }
      ],
      "name": "setURI",
      "outputs": [],
      "stateMutability": "nonpayable",
      "type": "function"
    },
    {
      "inputs": [
        {
          "internalType": "bytes4",
          "name": "interfaceId",
          "type": "bytes4"
        }
      ],
      "name": "supportsInterface",
      "outputs": [
        {
          "internalType": "bool",
          "name": "",
          "type": "bool"
        }
      ],
      "stateMutability": "view",
      "type": "function"
    },
    {
      "inputs": [],
      "name": "symbol",
      "outputs": [
        {
          "internalType": "string",
          "name": "",
          "type": "string"
        }
      ],
      "stateMutability": "view",
      "type": "function"
    },
    {
      "inputs": [
        {
          "internalType": "uint256",
          "name": "tokenId",
          "type": "uint256"
        }
      ],
      "name": "tokenURI",
      "outputs": [
        {
          "internalType": "string",
          "name": "",
          "type": "string"
        }
      ],
      "stateMutability": "view",
      "type": "function"
    },
    {
      "inputs": [
        {
          "internalType": "uint256",
          "name": "id",
          "type": "uint256"
        }
      ],
      "name": "totalSupply",
      "outputs": [
        {
          "internalType": "uint256",
          "name": "",
          "type": "uint256"
        }
      ],
      "stateMutability": "view",
      "type": "function"
    },
    {
      "inputs": [],
      "name": "unpause",
      "outputs": [],
      "stateMutability": "nonpayable",
      "type": "function"
    },
    {
      "inputs": [
        {
          "internalType": "uint256",
          "name": "tokenId",
          "type": "uint256"
        }
      ],
      "name": "uri",
      "outputs": [
        {
          "internalType": "string",
          "name": "",
          "type": "string"
        }
      ],
      "stateMutability": "view",
      "type": "function"
    },
    {
      "inputs": [],
      "name": "withdraw",
      "outputs": [],
      "stateMutability": "nonpayable",
      "type": "function"
    },
    {
      "stateMutability": "payable",
      "type": "receive"
    }
  ],
  "bytecode": "0x60806040523480156200001157600080fd5b506040805160208101909152600081526200002c81620000ba565b506005805460ff19169055600160065562000049600033620000d3565b620000757f9f2df0fed2c77648de5860a4cc508cd0818c85b8b8a1ab4ceeef8d981c8956a633620000d3565b60408051808201909152601b81527f68747470733a2f2f62656c6c792e696f2f6170692f63617264732f00000000006020820152620000b49062000177565b62000652565b8051620000cf906002906020840190620003f6565b5050565b60008281526004602090815260408083206001600160a01b038516845290915290205460ff16620000cf5760008281526004602090815260408083206001600160a01b03851684529091529020805460ff19166001179055620001333390565b6001600160a01b0316816001600160a01b0316837f2f8788117e7eff1d82e926ec794901d17c78024a50270940304540a733656f0d60405160405180910390a45050565b600062000185813362000190565b620000cf82620000ba565b60008281526004602090815260408083206001600160a01b038516845290915290205460ff16620000cf57620001dc816001600160a01b031660146200023660201b62001b3b1760201c565b620001f283602062001b3b62000236821b17811c565b60405160200162000205929190620004cf565b60408051601f198184030181529082905262461bcd60e51b82526200022d9160040162000548565b60405180910390fd5b606060006200024783600262000593565b62000254906002620005b5565b6001600160401b038111156200026e576200026e620005d0565b6040519080825280601f01601f19166020018201604052801562000299576020820181803683370190505b509050600360fc1b81600081518110620002b757620002b7620005e6565b60200101906001600160f81b031916908160001a905350600f60fb1b81600181518110620002e957620002e9620005e6565b60200101906001600160f81b031916908160001a90535060006200030f84600262000593565b6200031c906001620005b5565b90505b60018111156200039e576f181899199a1a9b1b9c1cb0b131b232b360811b85600f1660108110620003545762000354620005e6565b1a60f81b8282815181106200036d576200036d620005e6565b60200101906001600160f81b031916908160001a90535060049490941c936200039681620005fc565b90506200031f565b508315620003ef5760405162461bcd60e51b815260206004820181905260248201527f537472696e67733a20686578206c656e67746820696e73756666696369656e7460448201526064016200022d565b9392505050565b828054620004049062000616565b90600052602060002090601f01602090048101928262000428576000855562000473565b82601f106200044357805160ff191683800117855562000473565b8280016001018555821562000473579182015b828111156200047357825182559160200191906001019062000456565b506200048192915062000485565b5090565b5b8082111562000481576000815560010162000486565b60005b83811015620004b95781810151838201526020016200049f565b83811115620004c9576000848401525b50505050565b7f416363657373436f6e74726f6c3a206163636f756e7420000000000000000000815260008351620005098160178501602088016200049c565b7001034b99036b4b9b9b4b733903937b6329607d1b60179184019182015283516200053c8160288401602088016200049c565b01602801949350505050565b6020815260008251806020840152620005698160408501602087016200049c565b601f01601f19169190910160400192915050565b634e487b7160e01b600052601160045260246000fd5b6000816000190483118215151615620005b057620005b06200057d565b500290565b60008219821115620005cb57620005cb6200057d565b500190565b634e487b7160e01b600052604160045260246000fd5b634e487b7160e01b600052603260045260246000fd5b6000816200060e576200060e6200057d565b506000190190565b600181811c908216806200062b57607f821691505b6020821081036200064c57634e487b7160e01b600052602260045260246000fd5b50919050565b61491780620006626000396000f3fe6080604052600436106102885760003560e01c8063731133e911610153578063bd85b039116100cb578063e985e9c51161007f578063f242432a11610064578063f242432a146108b4578063f3917bd2146108d4578063f5298aca146108e757600080fd5b8063e985e9c514610819578063f23a6e611461086f57600080fd5b8063d5391393116100b0578063d539139314610798578063d547741f146107cc578063da5f4f91146107ec57600080fd5b8063bd85b0391461074b578063c87b56dd1461077857600080fd5b806395d89b4111610122578063a22cb46511610107578063a22cb46514610695578063aa91be07146106b5578063bc197c81146106d557600080fd5b806395d89b4114610637578063a217fddf1461068057600080fd5b8063731133e91461058f5780638456cb59146105af57806384ff3382146105c457806391d14854146105e457600080fd5b80632f2ff15d116102015780634e1273f4116101b55780635c975abb1161019a5780635c975abb146105055780636b20c4541461051d57806370e55f301461053d57600080fd5b80634e1273f4146104a95780634f558e79146104d657600080fd5b80633ccfd60b116101e65780633ccfd60b1461045f5780633f4ba83a14610474578063466e77bc1461048957600080fd5b80632f2ff15d1461041f57806336568abe1461043f57600080fd5b80630e89341c116102585780631f7fdffa1161023d5780631f7fdffa146103af578063248a9ca3146103cf5780632eb2c2d6146103ff57600080fd5b80630e89341c1461036f5780631eb679bd1461038f57600080fd5b8062fdd58e1461029457806301ffc9a7146102c757806302fe5305146102f757806306fdde031461031957600080fd5b3661028f57005b600080fd5b3480156102a057600080fd5b506102b46102af366004613b7e565b610907565b6040519081526020015b60405180910390f35b3480156102d357600080fd5b506102e76102e2366004613bd8565b6109e4565b60405190151581526020016102be565b34801561030357600080fd5b50610317610312366004613ceb565b6109f5565b005b34801561032557600080fd5b506103626040518060400160405280600981526020017f42656c6c79204e4654000000000000000000000000000000000000000000000081525081565b6040516102be9190613daa565b34801561037b57600080fd5b5061036261038a366004613dbd565b610a0e565b34801561039b57600080fd5b506103176103aa366004613dd6565b610abf565b3480156103bb57600080fd5b506103176103ca366004613ea8565b610c79565b3480156103db57600080fd5b506102b46103ea366004613dbd565b60009081526004602052604090206001015490565b34801561040b57600080fd5b5061031761041a366004613f43565b610d9a565b34801561042b57600080fd5b5061031761043a366004613ff1565b610e63565b34801561044b57600080fd5b5061031761045a366004613ff1565b610e8e565b34801561046b57600080fd5b50610317610f3d565b34801561048057600080fd5b50610317610ffd565b34801561049557600080fd5b506103176104a4366004614021565b611014565b3480156104b557600080fd5b506104c96104c436600461406f565b61128f565b6040516102be9190614177565b3480156104e257600080fd5b506102e76104f1366004613dbd565b600090815260036020526040902054151590565b34801561051157600080fd5b5060055460ff166102e7565b34801561052957600080fd5b5061031761053836600461418a565b6113e7565b34801561054957600080fd5b5060085461056a9073ffffffffffffffffffffffffffffffffffffffff1681565b60405173ffffffffffffffffffffffffffffffffffffffff90911681526020016102be565b34801561059b57600080fd5b506103176105aa366004614200565b6114a7565b3480156105bb57600080fd5b506103176115bc565b3480156105d057600080fd5b506103176105df366004613dd6565b6115d0565b3480156105f057600080fd5b506102e76105ff366004613ff1565b600091825260046020908152604080842073ffffffffffffffffffffffffffffffffffffffff93909316845291905290205460ff1690565b34801561064357600080fd5b506103626040518060400160405280600581526020017f42454c4c5900000000000000000000000000000000000000000000000000000081525081565b34801561068c57600080fd5b506102b4600081565b3480156106a157600080fd5b506103176106b0366004614265565b611677565b3480156106c157600080fd5b506103176106d0366004613dd6565b611682565b3480156106e157600080fd5b5061071a6106f0366004613f43565b7fbc197c810000000000000000000000000000000000000000000000000000000095945050505050565b6040517fffffffff0000000000000000000000000000000000000000000000000000000090911681526020016102be565b34801561075757600080fd5b506102b4610766366004613dbd565b60009081526003602052604090205490565b34801561078457600080fd5b50610362610793366004613dbd565b611729565b3480156107a457600080fd5b506102b47f9f2df0fed2c77648de5860a4cc508cd0818c85b8b8a1ab4ceeef8d981c8956a681565b3480156107d857600080fd5b506103176107e7366004613ff1565b611734565b3480156107f857600080fd5b5060075461056a9073ffffffffffffffffffffffffffffffffffffffff1681565b34801561082557600080fd5b506102e7610834366004614293565b73ffffffffffffffffffffffffffffffffffffffff918216600090815260016020908152604080832093909416825291909152205460ff1690565b34801561087b57600080fd5b5061071a61088a3660046142c1565b7ff23a6e610000000000000000000000000000000000000000000000000000000095945050505050565b3480156108c057600080fd5b506103176108cf3660046142c1565b61175a565b6103626108e2366004613dbd565b61181c565b3480156108f357600080fd5b5061031761090236600461432a565b611a7b565b600073ffffffffffffffffffffffffffffffffffffffff83166109b1576040517f08c379a000000000000000000000000000000000000000000000000000000000815260206004820152602b60248201527f455243313135353a2062616c616e636520717565727920666f7220746865207a60448201527f65726f206164647265737300000000000000000000000000000000000000000060648201526084015b60405180910390fd5b5060009081526020818152604080832073ffffffffffffffffffffffffffffffffffffffff949094168352929052205490565b60006109ef82611d85565b92915050565b6000610a018133611ddb565b610a0a82611ead565b5050565b600081815260036020526040902054606090610a86576040517f08c379a000000000000000000000000000000000000000000000000000000000815260206004820152601160248201527f4e6f6e6578697374656e7420746f6b656e00000000000000000000000000000060448201526064016109a8565b610a8f82611ec0565b610a9883611f54565b604051602001610aa992919061435f565b6040516020818303038152906040529050919050565b6000610acb8133611ddb565b73ffffffffffffffffffffffffffffffffffffffff8216610b48576040517f08c379a000000000000000000000000000000000000000000000000000000000815260206004820152601960248201527f546f6b656e20616464726573732063616e6e6f7420626520300000000000000060448201526064016109a8565b6040517f70a0823100000000000000000000000000000000000000000000000000000000815230600482015260009073ffffffffffffffffffffffffffffffffffffffff8416906370a0823190602401602060405180830381865afa158015610bb5573d6000803e3d6000fd5b505050506040513d601f19601f82011682018060405250810190610bd9919061438e565b6040517fa9059cbb0000000000000000000000000000000000000000000000000000000081523360048201526024810182905290915073ffffffffffffffffffffffffffffffffffffffff84169063a9059cbb906044016020604051808303816000875af1158015610c4f573d6000803e3d6000fd5b505050506040513d601f19601f82011682018060405250810190610c7391906143a7565b50505050565b600260065403610ce5576040517f08c379a000000000000000000000000000000000000000000000000000000000815260206004820152601f60248201527f5265656e7472616e637947756172643a207265656e7472616e742063616c6c0060448201526064016109a8565b600260065560055460ff1615610d57576040517f08c379a000000000000000000000000000000000000000000000000000000000815260206004820152601060248201527f5061757361626c653a207061757365640000000000000000000000000000000060448201526064016109a8565b7f9f2df0fed2c77648de5860a4cc508cd0818c85b8b8a1ab4ceeef8d981c8956a6610d828133611ddb565b610d8e85858585612091565b50506001600655505050565b73ffffffffffffffffffffffffffffffffffffffff8516331480610dc35750610dc38533610834565b610e4f576040517f08c379a000000000000000000000000000000000000000000000000000000000815260206004820152603260248201527f455243313135353a207472616e736665722063616c6c6572206973206e6f742060448201527f6f776e6572206e6f7220617070726f766564000000000000000000000000000060648201526084016109a8565b610e5c8585858585612319565b5050505050565b600082815260046020526040902060010154610e7f8133611ddb565b610e898383612661565b505050565b73ffffffffffffffffffffffffffffffffffffffff81163314610f33576040517f08c379a000000000000000000000000000000000000000000000000000000000815260206004820152602f60248201527f416363657373436f6e74726f6c3a2063616e206f6e6c792072656e6f756e636560448201527f20726f6c657320666f722073656c66000000000000000000000000000000000060648201526084016109a8565b610a0a8282612755565b6000610f498133611ddb565b6040514790600090339083908381818185875af1925050503d8060008114610f8d576040519150601f19603f3d011682016040523d82523d6000602084013e610f92565b606091505b5050905080610e89576040517f08c379a000000000000000000000000000000000000000000000000000000000815260206004820152601060248201527f5472616e73666572206661696c65642e0000000000000000000000000000000060448201526064016109a8565b60006110098133611ddb565b611011612810565b50565b60006110208133611ddb565b73ffffffffffffffffffffffffffffffffffffffff841661109d576040517f08c379a000000000000000000000000000000000000000000000000000000000815260206004820152601960248201527f546f6b656e20616464726573732063616e6e6f7420626520300000000000000060448201526064016109a8565b825160008167ffffffffffffffff8111156110ba576110ba613bf5565b6040519080825280602002602001820160405280156110e3578160200160208202803683370190505b50905060005b8281101561113b5730828281518110611104576111046143c4565b73ffffffffffffffffffffffffffffffffffffffff909216602092830291909101909101528061113381614422565b9150506110e9565b506040517f4e1273f400000000000000000000000000000000000000000000000000000000815260009073ffffffffffffffffffffffffffffffffffffffff881690634e1273f4906111939085908a9060040161445a565b600060405180830381865afa1580156111b0573d6000803e3d6000fd5b505050506040513d6000823e601f3d9081017fffffffffffffffffffffffffffffffffffffffffffffffffffffffffffffffe01682016040526111f691908101906144c7565b6040517f2eb2c2d600000000000000000000000000000000000000000000000000000000815290915073ffffffffffffffffffffffffffffffffffffffff881690632eb2c2d6906112539030908c908b9087908c90600401614563565b600060405180830381600087803b15801561126d57600080fd5b505af1158015611281573d6000803e3d6000fd5b505050505050505050505050565b60608151835114611322576040517f08c379a000000000000000000000000000000000000000000000000000000000815260206004820152602960248201527f455243313135353a206163636f756e747320616e6420696473206c656e67746860448201527f206d69736d61746368000000000000000000000000000000000000000000000060648201526084016109a8565b6000835167ffffffffffffffff81111561133e5761133e613bf5565b604051908082528060200260200182016040528015611367578160200160208202803683370190505b50905060005b84518110156113df576113b285828151811061138b5761138b6143c4565b60200260200101518583815181106113a5576113a56143c4565b6020026020010151610907565b8282815181106113c4576113c46143c4565b60209081029190910101526113d881614422565b905061136d565b509392505050565b73ffffffffffffffffffffffffffffffffffffffff831633148061141057506114108333610834565b61149c576040517f08c379a000000000000000000000000000000000000000000000000000000000815260206004820152602960248201527f455243313135353a2063616c6c6572206973206e6f74206f776e6572206e6f7260448201527f20617070726f766564000000000000000000000000000000000000000000000060648201526084016109a8565b610e898383836128f1565b600260065403611513576040517f08c379a000000000000000000000000000000000000000000000000000000000815260206004820152601f60248201527f5265656e7472616e637947756172643a207265656e7472616e742063616c6c0060448201526064016109a8565b600260065560055460ff1615611585576040517f08c379a000000000000000000000000000000000000000000000000000000000815260206004820152601060248201527f5061757361626c653a207061757365640000000000000000000000000000000060448201526064016109a8565b7f9f2df0fed2c77648de5860a4cc508cd0818c85b8b8a1ab4ceeef8d981c8956a66115b08133611ddb565b610d8e85858585612c1c565b60006115c88133611ddb565b611011612d89565b808073ffffffffffffffffffffffffffffffffffffffff163b600003611622576040517fd9716e4300000000000000000000000000000000000000000000000000000000815260040160405180910390fd5b600061162e8133611ddb565b5050600780547fffffffffffffffffffffffff00000000000000000000000000000000000000001673ffffffffffffffffffffffffffffffffffffffff92909216919091179055565b610a0a338383612e49565b808073ffffffffffffffffffffffffffffffffffffffff163b6000036116d4576040517fd9716e4300000000000000000000000000000000000000000000000000000000815260040160405180910390fd5b60006116e08133611ddb565b5050600880547fffffffffffffffffffffffff00000000000000000000000000000000000000001673ffffffffffffffffffffffffffffffffffffffff92909216919091179055565b60606109ef82610a0e565b6000828152600460205260409020600101546117508133611ddb565b610e898383612755565b73ffffffffffffffffffffffffffffffffffffffff851633148061178357506117838533610834565b61180f576040517f08c379a000000000000000000000000000000000000000000000000000000000815260206004820152602960248201527f455243313135353a2063616c6c6572206973206e6f74206f776e6572206e6f7260448201527f20617070726f766564000000000000000000000000000000000000000000000060648201526084016109a8565b610e5c8585858585612f9c565b606060026006540361188a576040517f08c379a000000000000000000000000000000000000000000000000000000000815260206004820152601f60248201527f5265656e7472616e637947756172643a207265656e7472616e742063616c6c0060448201526064016109a8565b600260065560055460ff16156118fc576040517f08c379a000000000000000000000000000000000000000000000000000000000815260206004820152601060248201527f5061757361626c653a207061757365640000000000000000000000000000000060448201526064016109a8565b60075460405160248101849052600091829173ffffffffffffffffffffffffffffffffffffffff90911690604401604080517fffffffffffffffffffffffffffffffffffffffffffffffffffffffffffffffe08184030181529181526020820180517bffffffffffffffffffffffffffffffffffffffffffffffffffffffff167ff3917bd200000000000000000000000000000000000000000000000000000000179052516119ab91906145ce565b600060405180830381855af49150503d80600081146119e6576040519150601f19603f3d011682016040523d82523d6000602084013e6119eb565b606091505b509150915081156119ff579150611a719050565b805115611a0f5780518082602001fd5b6040517f08c379a000000000000000000000000000000000000000000000000000000000815260206004820152601f60248201527f4661696c656420746f2064656c656761746563616c6c20746f2063726166740060448201526064016109a8565b6001600655919050565b73ffffffffffffffffffffffffffffffffffffffff8316331480611aa45750611aa48333610834565b611b30576040517f08c379a000000000000000000000000000000000000000000000000000000000815260206004820152602960248201527f455243313135353a2063616c6c6572206973206e6f74206f776e6572206e6f7260448201527f20617070726f766564000000000000000000000000000000000000000000000060648201526084016109a8565b610e898383836131cd565b60606000611b4a8360026145ea565b611b55906002614627565b67ffffffffffffffff811115611b6d57611b6d613bf5565b6040519080825280601f01601f191660200182016040528015611b97576020820181803683370190505b5090507f300000000000000000000000000000000000000000000000000000000000000081600081518110611bce57611bce6143c4565b60200101907effffffffffffffffffffffffffffffffffffffffffffffffffffffffffffff1916908160001a9053507f780000000000000000000000000000000000000000000000000000000000000081600181518110611c3157611c316143c4565b60200101907effffffffffffffffffffffffffffffffffffffffffffffffffffffffffffff1916908160001a9053506000611c6d8460026145ea565b611c78906001614627565b90505b6001811115611d15577f303132333435363738396162636465660000000000000000000000000000000085600f1660108110611cb957611cb96143c4565b1a60f81b828281518110611ccf57611ccf6143c4565b60200101907effffffffffffffffffffffffffffffffffffffffffffffffffffffffffffff1916908160001a90535060049490941c93611d0e8161463f565b9050611c7b565b508315611d7e576040517f08c379a000000000000000000000000000000000000000000000000000000000815260206004820181905260248201527f537472696e67733a20686578206c656e67746820696e73756666696369656e7460448201526064016109a8565b9392505050565b60007fffffffff0000000000000000000000000000000000000000000000000000000082167f7965db0b0000000000000000000000000000000000000000000000000000000014806109ef57506109ef826133d4565b600082815260046020908152604080832073ffffffffffffffffffffffffffffffffffffffff8516845290915290205460ff16610a0a57611e338173ffffffffffffffffffffffffffffffffffffffff166014611b3b565b611e3e836020611b3b565b604051602001611e4f929190614674565b604080517fffffffffffffffffffffffffffffffffffffffffffffffffffffffffffffffe0818403018152908290527f08c379a00000000000000000000000000000000000000000000000000000000082526109a891600401613daa565b8051610a0a906002906020840190613ac3565b606060028054611ecf906146f5565b80601f0160208091040260200160405190810160405280929190818152602001828054611efb906146f5565b8015611f485780601f10611f1d57610100808354040283529160200191611f48565b820191906000526020600020905b815481529060010190602001808311611f2b57829003601f168201915b50505050509050919050565b606081600003611f9757505060408051808201909152600181527f3000000000000000000000000000000000000000000000000000000000000000602082015290565b8160005b8115611fc15780611fab81614422565b9150611fba9050600a83614777565b9150611f9b565b60008167ffffffffffffffff811115611fdc57611fdc613bf5565b6040519080825280601f01601f191660200182016040528015612006576020820181803683370190505b5090505b84156120895761201b60018361478b565b9150612028600a866147a2565b612033906030614627565b60f81b818381518110612048576120486143c4565b60200101907effffffffffffffffffffffffffffffffffffffffffffffffffffffffffffff1916908160001a905350612082600a86614777565b945061200a565b949350505050565b73ffffffffffffffffffffffffffffffffffffffff8416612134576040517f08c379a000000000000000000000000000000000000000000000000000000000815260206004820152602160248201527f455243313135353a206d696e7420746f20746865207a65726f2061646472657360448201527f730000000000000000000000000000000000000000000000000000000000000060648201526084016109a8565b81518351146121c5576040517f08c379a000000000000000000000000000000000000000000000000000000000815260206004820152602860248201527f455243313135353a2069647320616e6420616d6f756e7473206c656e6774682060448201527f6d69736d6174636800000000000000000000000000000000000000000000000060648201526084016109a8565b336121d58160008787878761342a565b60005b845181101561228a578381815181106121f3576121f36143c4565b6020026020010151600080878481518110612210576122106143c4565b6020026020010151815260200190815260200160002060008873ffffffffffffffffffffffffffffffffffffffff1673ffffffffffffffffffffffffffffffffffffffff16815260200190815260200160002060008282546122729190614627565b9091555081905061228281614422565b9150506121d8565b508473ffffffffffffffffffffffffffffffffffffffff16600073ffffffffffffffffffffffffffffffffffffffff168273ffffffffffffffffffffffffffffffffffffffff167f4a39dc06d4c0dbc64b70af90fd698a233a518aa5d07e595d983b8c0526c8f7fb87876040516123029291906147b6565b60405180910390a4610e5c81600087878787613438565b81518351146123aa576040517f08c379a000000000000000000000000000000000000000000000000000000000815260206004820152602860248201527f455243313135353a2069647320616e6420616d6f756e7473206c656e6774682060448201527f6d69736d6174636800000000000000000000000000000000000000000000000060648201526084016109a8565b73ffffffffffffffffffffffffffffffffffffffff841661244d576040517f08c379a000000000000000000000000000000000000000000000000000000000815260206004820152602560248201527f455243313135353a207472616e7366657220746f20746865207a65726f20616460448201527f647265737300000000000000000000000000000000000000000000000000000060648201526084016109a8565b3361245c81878787878761342a565b60005b84518110156125cc57600085828151811061247c5761247c6143c4565b60200260200101519050600085838151811061249a5761249a6143c4565b6020908102919091018101516000848152808352604080822073ffffffffffffffffffffffffffffffffffffffff8e168352909352919091205490915081811015612567576040517f08c379a000000000000000000000000000000000000000000000000000000000815260206004820152602a60248201527f455243313135353a20696e73756666696369656e742062616c616e636520666f60448201527f72207472616e736665720000000000000000000000000000000000000000000060648201526084016109a8565b60008381526020818152604080832073ffffffffffffffffffffffffffffffffffffffff8e8116855292528083208585039055908b168252812080548492906125b1908490614627565b92505081905550505050806125c590614422565b905061245f565b508473ffffffffffffffffffffffffffffffffffffffff168673ffffffffffffffffffffffffffffffffffffffff168273ffffffffffffffffffffffffffffffffffffffff167f4a39dc06d4c0dbc64b70af90fd698a233a518aa5d07e595d983b8c0526c8f7fb87876040516126439291906147b6565b60405180910390a4612659818787878787613438565b505050505050565b600082815260046020908152604080832073ffffffffffffffffffffffffffffffffffffffff8516845290915290205460ff16610a0a57600082815260046020908152604080832073ffffffffffffffffffffffffffffffffffffffff85168452909152902080547fffffffffffffffffffffffffffffffffffffffffffffffffffffffffffffff001660011790556126f73390565b73ffffffffffffffffffffffffffffffffffffffff168173ffffffffffffffffffffffffffffffffffffffff16837f2f8788117e7eff1d82e926ec794901d17c78024a50270940304540a733656f0d60405160405180910390a45050565b600082815260046020908152604080832073ffffffffffffffffffffffffffffffffffffffff8516845290915290205460ff1615610a0a57600082815260046020908152604080832073ffffffffffffffffffffffffffffffffffffffff8516808552925280832080547fffffffffffffffffffffffffffffffffffffffffffffffffffffffffffffff0016905551339285917ff6391f5c32d9c69d2a47ea670b442974b53935d1edc7fd64eb21e047a839171b9190a45050565b60055460ff1661287c576040517f08c379a000000000000000000000000000000000000000000000000000000000815260206004820152601460248201527f5061757361626c653a206e6f742070617573656400000000000000000000000060448201526064016109a8565b600580547fffffffffffffffffffffffffffffffffffffffffffffffffffffffffffffff001690557f5db9ee0a495bf2e6ff9c91a7834c1ba4fdd244a5e8aa4e537bd38aeae4b073aa335b60405173ffffffffffffffffffffffffffffffffffffffff909116815260200160405180910390a1565b73ffffffffffffffffffffffffffffffffffffffff8316612994576040517f08c379a000000000000000000000000000000000000000000000000000000000815260206004820152602360248201527f455243313135353a206275726e2066726f6d20746865207a65726f206164647260448201527f657373000000000000000000000000000000000000000000000000000000000060648201526084016109a8565b8051825114612a25576040517f08c379a000000000000000000000000000000000000000000000000000000000815260206004820152602860248201527f455243313135353a2069647320616e6420616d6f756e7473206c656e6774682060448201527f6d69736d6174636800000000000000000000000000000000000000000000000060648201526084016109a8565b6000339050612a488185600086866040518060200160405280600081525061342a565b60005b8351811015612b96576000848281518110612a6857612a686143c4565b602002602001015190506000848381518110612a8657612a866143c4565b6020908102919091018101516000848152808352604080822073ffffffffffffffffffffffffffffffffffffffff8c168352909352919091205490915081811015612b52576040517f08c379a0000000000000000000000000000000000000000000000000000000008152602060048201526024808201527f455243313135353a206275726e20616d6f756e7420657863656564732062616c60448201527f616e63650000000000000000000000000000000000000000000000000000000060648201526084016109a8565b60009283526020838152604080852073ffffffffffffffffffffffffffffffffffffffff8b1686529091529092209103905580612b8e81614422565b915050612a4b565b50600073ffffffffffffffffffffffffffffffffffffffff168473ffffffffffffffffffffffffffffffffffffffff168273ffffffffffffffffffffffffffffffffffffffff167f4a39dc06d4c0dbc64b70af90fd698a233a518aa5d07e595d983b8c0526c8f7fb8686604051612c0e9291906147b6565b60405180910390a450505050565b73ffffffffffffffffffffffffffffffffffffffff8416612cbf576040517f08c379a000000000000000000000000000000000000000000000000000000000815260206004820152602160248201527f455243313135353a206d696e7420746f20746865207a65726f2061646472657360448201527f730000000000000000000000000000000000000000000000000000000000000060648201526084016109a8565b33612cdf81600087612cd0886136c2565b612cd9886136c2565b8761342a565b60008481526020818152604080832073ffffffffffffffffffffffffffffffffffffffff8916845290915281208054859290612d1c908490614627565b9091555050604080518581526020810185905273ffffffffffffffffffffffffffffffffffffffff80881692600092918516917fc3d58168c5ae7397731d063d5bbf3d657854427343f4c083240f7aacaa2d0f62910160405180910390a4610e5c8160008787878761370d565b60055460ff1615612df6576040517f08c379a000000000000000000000000000000000000000000000000000000000815260206004820152601060248201527f5061757361626c653a207061757365640000000000000000000000000000000060448201526064016109a8565b600580547fffffffffffffffffffffffffffffffffffffffffffffffffffffffffffffff001660011790557f62e78cea01bee320cd4e420270b5ea74000d11b0c9f74754ebdbfc544b05a2586128c73390565b8173ffffffffffffffffffffffffffffffffffffffff168373ffffffffffffffffffffffffffffffffffffffff1603612f04576040517f08c379a000000000000000000000000000000000000000000000000000000000815260206004820152602960248201527f455243313135353a2073657474696e6720617070726f76616c2073746174757360448201527f20666f722073656c66000000000000000000000000000000000000000000000060648201526084016109a8565b73ffffffffffffffffffffffffffffffffffffffff83811660008181526001602090815260408083209487168084529482529182902080547fffffffffffffffffffffffffffffffffffffffffffffffffffffffffffffff001686151590811790915591519182527f17307eab39ab6107e8899845ad3d59bd9653f200f220920489ca2b5937696c31910160405180910390a3505050565b73ffffffffffffffffffffffffffffffffffffffff841661303f576040517f08c379a000000000000000000000000000000000000000000000000000000000815260206004820152602560248201527f455243313135353a207472616e7366657220746f20746865207a65726f20616460448201527f647265737300000000000000000000000000000000000000000000000000000060648201526084016109a8565b3361304f818787612cd0886136c2565b60008481526020818152604080832073ffffffffffffffffffffffffffffffffffffffff8a1684529091529020548381101561310d576040517f08c379a000000000000000000000000000000000000000000000000000000000815260206004820152602a60248201527f455243313135353a20696e73756666696369656e742062616c616e636520666f60448201527f72207472616e736665720000000000000000000000000000000000000000000060648201526084016109a8565b60008581526020818152604080832073ffffffffffffffffffffffffffffffffffffffff8b8116855292528083208785039055908816825281208054869290613157908490614627565b9091555050604080518681526020810186905273ffffffffffffffffffffffffffffffffffffffff808916928a821692918616917fc3d58168c5ae7397731d063d5bbf3d657854427343f4c083240f7aacaa2d0f62910160405180910390a46131c482888888888861370d565b50505050505050565b73ffffffffffffffffffffffffffffffffffffffff8316613270576040517f08c379a000000000000000000000000000000000000000000000000000000000815260206004820152602360248201527f455243313135353a206275726e2066726f6d20746865207a65726f206164647260448201527f657373000000000000000000000000000000000000000000000000000000000060648201526084016109a8565b3361329f81856000613281876136c2565b61328a876136c2565b6040518060200160405280600081525061342a565b60008381526020818152604080832073ffffffffffffffffffffffffffffffffffffffff881684529091529020548281101561335c576040517f08c379a0000000000000000000000000000000000000000000000000000000008152602060048201526024808201527f455243313135353a206275726e20616d6f756e7420657863656564732062616c60448201527f616e63650000000000000000000000000000000000000000000000000000000060648201526084016109a8565b60008481526020818152604080832073ffffffffffffffffffffffffffffffffffffffff898116808652918452828520888703905582518981529384018890529092908616917fc3d58168c5ae7397731d063d5bbf3d657854427343f4c083240f7aacaa2d0f62910160405180910390a45050505050565b60007fffffffff0000000000000000000000000000000000000000000000000000000082167f4e2312e00000000000000000000000000000000000000000000000000000000014806109ef57506109ef826138ba565b61265986868686868661399d565b73ffffffffffffffffffffffffffffffffffffffff84163b15612659576040517fbc197c8100000000000000000000000000000000000000000000000000000000815273ffffffffffffffffffffffffffffffffffffffff85169063bc197c81906134af9089908990889088908890600401614563565b6020604051808303816000875af1925050508015613508575060408051601f3d9081017fffffffffffffffffffffffffffffffffffffffffffffffffffffffffffffffe0168201909252613505918101906147e4565b60015b6135f157613514614801565b806308c379a003613567575061352861481d565b806135335750613569565b806040517f08c379a00000000000000000000000000000000000000000000000000000000081526004016109a89190613daa565b505b6040517f08c379a000000000000000000000000000000000000000000000000000000000815260206004820152603460248201527f455243313135353a207472616e7366657220746f206e6f6e204552433131353560448201527f526563656976657220696d706c656d656e74657200000000000000000000000060648201526084016109a8565b7fffffffff0000000000000000000000000000000000000000000000000000000081167fbc197c8100000000000000000000000000000000000000000000000000000000146131c4576040517f08c379a000000000000000000000000000000000000000000000000000000000815260206004820152602860248201527f455243313135353a204552433131353552656365697665722072656a6563746560448201527f6420746f6b656e7300000000000000000000000000000000000000000000000060648201526084016109a8565b604080516001808252818301909252606091600091906020808301908036833701905050905082816000815181106136fc576136fc6143c4565b602090810291909101015292915050565b73ffffffffffffffffffffffffffffffffffffffff84163b15612659576040517ff23a6e6100000000000000000000000000000000000000000000000000000000815273ffffffffffffffffffffffffffffffffffffffff85169063f23a6e619061378490899089908890889088906004016148c5565b6020604051808303816000875af19250505080156137dd575060408051601f3d9081017fffffffffffffffffffffffffffffffffffffffffffffffffffffffffffffffe01682019092526137da918101906147e4565b60015b6137e957613514614801565b7fffffffff0000000000000000000000000000000000000000000000000000000081167ff23a6e6100000000000000000000000000000000000000000000000000000000146131c4576040517f08c379a000000000000000000000000000000000000000000000000000000000815260206004820152602860248201527f455243313135353a204552433131353552656365697665722072656a6563746560448201527f6420746f6b656e7300000000000000000000000000000000000000000000000060648201526084016109a8565b60007fffffffff0000000000000000000000000000000000000000000000000000000082167fd9b67a2600000000000000000000000000000000000000000000000000000000148061394d57507fffffffff0000000000000000000000000000000000000000000000000000000082167f0e89341c00000000000000000000000000000000000000000000000000000000145b806109ef57507f01ffc9a7000000000000000000000000000000000000000000000000000000007fffffffff000000000000000000000000000000000000000000000000000000008316146109ef565b73ffffffffffffffffffffffffffffffffffffffff8516613a315760005b8351811015613a2f578281815181106139d6576139d66143c4565b6020026020010151600360008684815181106139f4576139f46143c4565b602002602001015181526020019081526020016000206000828254613a199190614627565b90915550613a28905081614422565b90506139bb565b505b73ffffffffffffffffffffffffffffffffffffffff84166126595760005b83518110156131c457828181518110613a6a57613a6a6143c4565b602002602001015160036000868481518110613a8857613a886143c4565b602002602001015181526020019081526020016000206000828254613aad919061478b565b90915550613abc905081614422565b9050613a4f565b828054613acf906146f5565b90600052602060002090601f016020900481019282613af15760008555613b37565b82601f10613b0a57805160ff1916838001178555613b37565b82800160010185558215613b37579182015b82811115613b37578251825591602001919060010190613b1c565b50613b43929150613b47565b5090565b5b80821115613b435760008155600101613b48565b73ffffffffffffffffffffffffffffffffffffffff8116811461101157600080fd5b60008060408385031215613b9157600080fd5b8235613b9c81613b5c565b946020939093013593505050565b7fffffffff000000000000000000000000000000000000000000000000000000008116811461101157600080fd5b600060208284031215613bea57600080fd5b8135611d7e81613baa565b7f4e487b7100000000000000000000000000000000000000000000000000000000600052604160045260246000fd5b7fffffffffffffffffffffffffffffffffffffffffffffffffffffffffffffffe0601f830116810181811067ffffffffffffffff82111715613c6857613c68613bf5565b6040525050565b600067ffffffffffffffff831115613c8957613c89613bf5565b604051613cbe60207fffffffffffffffffffffffffffffffffffffffffffffffffffffffffffffffe0601f8701160182613c24565b809150838152848484011115613cd357600080fd5b83836020830137600060208583010152509392505050565b600060208284031215613cfd57600080fd5b813567ffffffffffffffff811115613d1457600080fd5b8201601f81018413613d2557600080fd5b61208984823560208401613c6f565b60005b83811015613d4f578181015183820152602001613d37565b83811115610c735750506000910152565b60008151808452613d78816020860160208601613d34565b601f017fffffffffffffffffffffffffffffffffffffffffffffffffffffffffffffffe0169290920160200192915050565b602081526000611d7e6020830184613d60565b600060208284031215613dcf57600080fd5b5035919050565b600060208284031215613de857600080fd5b8135611d7e81613b5c565b600067ffffffffffffffff821115613e0d57613e0d613bf5565b5060051b60200190565b600082601f830112613e2857600080fd5b81356020613e3582613df3565b604051613e428282613c24565b83815260059390931b8501820192828101915086841115613e6257600080fd5b8286015b84811015613e7d5780358352918301918301613e66565b509695505050505050565b600082601f830112613e9957600080fd5b611d7e83833560208501613c6f565b60008060008060808587031215613ebe57600080fd5b8435613ec981613b5c565b9350602085013567ffffffffffffffff80821115613ee657600080fd5b613ef288838901613e17565b94506040870135915080821115613f0857600080fd5b613f1488838901613e17565b93506060870135915080821115613f2a57600080fd5b50613f3787828801613e88565b91505092959194509250565b600080600080600060a08688031215613f5b57600080fd5b8535613f6681613b5c565b94506020860135613f7681613b5c565b9350604086013567ffffffffffffffff80821115613f9357600080fd5b613f9f89838a01613e17565b94506060880135915080821115613fb557600080fd5b613fc189838a01613e17565b93506080880135915080821115613fd757600080fd5b50613fe488828901613e88565b9150509295509295909350565b6000806040838503121561400457600080fd5b82359150602083013561401681613b5c565b809150509250929050565b6000806000806080858703121561403757600080fd5b843561404281613b5c565b9350602085013561405281613b5c565b9250604085013567ffffffffffffffff80821115613f0857600080fd5b6000806040838503121561408257600080fd5b823567ffffffffffffffff8082111561409a57600080fd5b818501915085601f8301126140ae57600080fd5b813560206140bb82613df3565b6040516140c88282613c24565b83815260059390931b85018201928281019150898411156140e857600080fd5b948201945b8386101561410f57853561410081613b5c565b825294820194908201906140ed565b9650508601359250508082111561412557600080fd5b5061413285828601613e17565b9150509250929050565b600081518084526020808501945080840160005b8381101561416c57815187529582019590820190600101614150565b509495945050505050565b602081526000611d7e602083018461413c565b60008060006060848603121561419f57600080fd5b83356141aa81613b5c565b9250602084013567ffffffffffffffff808211156141c757600080fd5b6141d387838801613e17565b935060408601359150808211156141e957600080fd5b506141f686828701613e17565b9150509250925092565b6000806000806080858703121561421657600080fd5b843561422181613b5c565b93506020850135925060408501359150606085013567ffffffffffffffff81111561424b57600080fd5b613f3787828801613e88565b801515811461101157600080fd5b6000806040838503121561427857600080fd5b823561428381613b5c565b9150602083013561401681614257565b600080604083850312156142a657600080fd5b82356142b181613b5c565b9150602083013561401681613b5c565b600080600080600060a086880312156142d957600080fd5b85356142e481613b5c565b945060208601356142f481613b5c565b93506040860135925060608601359150608086013567ffffffffffffffff81111561431e57600080fd5b613fe488828901613e88565b60008060006060848603121561433f57600080fd5b833561434a81613b5c565b95602085013595506040909401359392505050565b60008351614371818460208801613d34565b835190830190614385818360208801613d34565b01949350505050565b6000602082840312156143a057600080fd5b5051919050565b6000602082840312156143b957600080fd5b8151611d7e81614257565b7f4e487b7100000000000000000000000000000000000000000000000000000000600052603260045260246000fd5b7f4e487b7100000000000000000000000000000000000000000000000000000000600052601160045260246000fd5b60007fffffffffffffffffffffffffffffffffffffffffffffffffffffffffffffffff8203614453576144536143f3565b5060010190565b604080825283519082018190526000906020906060840190828701845b828110156144a957815173ffffffffffffffffffffffffffffffffffffffff1684529284019290840190600101614477565b505050838103828501526144bd818661413c565b9695505050505050565b600060208083850312156144da57600080fd5b825167ffffffffffffffff8111156144f157600080fd5b8301601f8101851361450257600080fd5b805161450d81613df3565b60405161451a8282613c24565b82815260059290921b830184019184810191508783111561453a57600080fd5b928401925b828410156145585783518252928401929084019061453f565b979650505050505050565b600073ffffffffffffffffffffffffffffffffffffffff808816835280871660208401525060a0604083015261459c60a083018661413c565b82810360608401526145ae818661413c565b905082810360808401526145c28185613d60565b98975050505050505050565b600082516145e0818460208701613d34565b9190910192915050565b6000817fffffffffffffffffffffffffffffffffffffffffffffffffffffffffffffffff0483118215151615614622576146226143f3565b500290565b6000821982111561463a5761463a6143f3565b500190565b60008161464e5761464e6143f3565b507fffffffffffffffffffffffffffffffffffffffffffffffffffffffffffffffff0190565b7f416363657373436f6e74726f6c3a206163636f756e74200000000000000000008152600083516146ac816017850160208801613d34565b7f206973206d697373696e6720726f6c652000000000000000000000000000000060179184019182015283516146e9816028840160208801613d34565b01602801949350505050565b600181811c9082168061470957607f821691505b602082108103614742577f4e487b7100000000000000000000000000000000000000000000000000000000600052602260045260246000fd5b50919050565b7f4e487b7100000000000000000000000000000000000000000000000000000000600052601260045260246000fd5b60008261478657614786614748565b500490565b60008282101561479d5761479d6143f3565b500390565b6000826147b1576147b1614748565b500690565b6040815260006147c9604083018561413c565b82810360208401526147db818561413c565b95945050505050565b6000602082840312156147f657600080fd5b8151611d7e81613baa565b600060033d111561481a5760046000803e5060005160e01c5b90565b600060443d101561482b5790565b6040517ffffffffffffffffffffffffffffffffffffffffffffffffffffffffffffffffc803d016004833e81513d67ffffffffffffffff816024840111818411171561487957505050505090565b82850191508151818111156148915750505050505090565b843d87010160208285010111156148ab5750505050505090565b6148ba60208286010187613c24565b509095945050505050565b600073ffffffffffffffffffffffffffffffffffffffff808816835280871660208401525084604083015283606083015260a0608083015261455860a0830184613d6056fea164736f6c634300080d000a",
  "linkReferences": {},
  "deployedLinkReferences": {}
}