{
  "_format": "hh-sol-artifact-1",
  "contractName": "BellyFaucet",
  "sourceName": "contracts/BellyFaucet.sol",
  "abi": [
    {
      "inputs": [],
      "stateMutability": "nonpayable",
      "type": "constructor"
    },
    {
      "anonymous": false,
      "inputs": [
        {
          "indexed": false,
          "internalType": "address",
          "name": "account",
          "type": "address"
        }
      ],
      "name": "Paused",
      "type": "event"
    },
    {
      "anonymous": false,
      "inputs": [
        {
          "indexed": true,
          "internalType": "bytes32",
          "name": "role",
          "type": "bytes32"
        },
        {
          "indexed": true,
          "internalType": "bytes32",
          "name": "previousAdminRole",
          "type": "bytes32"
        },
        {
          "indexed": true,
          "internalType": "bytes32",
          "name": "newAdminRole",
          "type": "bytes32"
        }
      ],
      "name": "RoleAdminChanged",
      "type": "event"
    },
    {
      "anonymous": false,
      "inputs": [
        {
          "indexed": true,
          "internalType": "bytes32",
          "name": "role",
          "type": "bytes32"
        },
        {
          "indexed": true,
          "internalType": "address",
          "name": "account",
          "type": "address"
        },
        {
          "indexed": true,
          "internalType": "address",
          "name": "sender",
          "type": "address"
        }
      ],
      "name": "RoleGranted",
      "type": "event"
    },
    {
      "anonymous": false,
      "inputs": [
        {
          "indexed": true,
          "internalType": "bytes32",
          "name": "role",
          "type": "bytes32"
        },
        {
          "indexed": true,
          "internalType": "address",
          "name": "account",
          "type": "address"
        },
        {
          "indexed": true,
          "internalType": "address",
          "name": "sender",
          "type": "address"
        }
      ],
      "name": "RoleRevoked",
      "type": "event"
    },
    {
      "anonymous": false,
      "inputs": [
        {
          "indexed": false,
          "internalType": "address",
          "name": "account",
          "type": "address"
        }
      ],
      "name": "Unpaused",
      "type": "event"
    },
    {
      "inputs": [],
      "name": "DEFAULT_ADMIN_ROLE",
      "outputs": [
        {
          "internalType": "bytes32",
          "name": "",
          "type": "bytes32"
        }
      ],
      "stateMutability": "view",
      "type": "function"
    },
    {
      "inputs": [],
      "name": "bellyNft",
      "outputs": [
        {
          "internalType": "contract IBellyNft",
          "name": "",
          "type": "address"
        }
      ],
      "stateMutability": "view",
      "type": "function"
    },
    {
      "inputs": [
        {
          "internalType": "bytes32",
          "name": "role",
          "type": "bytes32"
        }
      ],
      "name": "getRoleAdmin",
      "outputs": [
        {
          "internalType": "bytes32",
          "name": "",
          "type": "bytes32"
        }
      ],
      "stateMutability": "view",
      "type": "function"
    },
    {
      "inputs": [
        {
          "internalType": "address",
          "name": "to",
          "type": "address"
        }
      ],
      "name": "gimmeIngredients",
      "outputs": [],
      "stateMutability": "nonpayable",
      "type": "function"
    },
    {
      "inputs": [
        {
          "internalType": "bytes32",
          "name": "role",
          "type": "bytes32"
        },
        {
          "internalType": "address",
          "name": "account",
          "type": "address"
        }
      ],
      "name": "grantRole",
      "outputs": [],
      "stateMutability": "nonpayable",
      "type": "function"
    },
    {
      "inputs": [
        {
          "internalType": "bytes32",
          "name": "role",
          "type": "bytes32"
        },
        {
          "internalType": "address",
          "name": "account",
          "type": "address"
        }
      ],
      "name": "hasRole",
      "outputs": [
        {
          "internalType": "bool",
          "name": "",
          "type": "bool"
        }
      ],
      "stateMutability": "view",
      "type": "function"
    },
    {
      "inputs": [],
      "name": "pause",
      "outputs": [],
      "stateMutability": "nonpayable",
      "type": "function"
    },
    {
      "inputs": [],
      "name": "paused",
      "outputs": [
        {
          "internalType": "bool",
          "name": "",
          "type": "bool"
        }
      ],
      "stateMutability": "view",
      "type": "function"
    },
    {
      "inputs": [
        {
          "internalType": "bytes32",
          "name": "role",
          "type": "bytes32"
        },
        {
          "internalType": "address",
          "name": "account",
          "type": "address"
        }
      ],
      "name": "renounceRole",
      "outputs": [],
      "stateMutability": "nonpayable",
      "type": "function"
    },
    {
      "inputs": [
        {
          "internalType": "bytes32",
          "name": "role",
          "type": "bytes32"
        },
        {
          "internalType": "address",
          "name": "account",
          "type": "address"
        }
      ],
      "name": "revokeRole",
      "outputs": [],
      "stateMutability": "nonpayable",
      "type": "function"
    },
    {
      "inputs": [
        {
          "internalType": "address",
          "name": "contractAddress",
          "type": "address"
        }
      ],
      "name": "setBellyNft",
      "outputs": [],
      "stateMutability": "nonpayable",
      "type": "function"
    },
    {
      "inputs": [
        {
          "internalType": "bytes4",
          "name": "interfaceId",
          "type": "bytes4"
        }
      ],
      "name": "supportsInterface",
      "outputs": [
        {
          "internalType": "bool",
          "name": "",
          "type": "bool"
        }
      ],
      "stateMutability": "view",
      "type": "function"
    },
    {
      "inputs": [],
      "name": "unpause",
      "outputs": [],
      "stateMutability": "nonpayable",
      "type": "function"
    }
  ],
  "bytecode": "0x608060405234801561001057600080fd5b506001805460ff1916815560025561002960003361002e565b6100cd565b6000828152602081815260408083206001600160a01b038516845290915290205460ff166100c9576000828152602081815260408083206001600160a01b03851684529091529020805460ff191660011790556100883390565b6001600160a01b0316816001600160a01b0316837f2f8788117e7eff1d82e926ec794901d17c78024a50270940304540a733656f0d60405160405180910390a45b5050565b611235806100dc6000396000f3fe608060405234801561001057600080fd5b50600436106100df5760003560e01c80635c975abb1161008c578063a217fddf11610066578063a217fddf14610209578063a5a138b514610211578063c17c25c614610224578063d547741f1461023757600080fd5b80635c975abb146101b25780638456cb59146101bd57806391d14854146101c557600080fd5b806336568abe116100bd57806336568abe146101525780633f4ba83a146101655780634d5a11961461016d57600080fd5b806301ffc9a7146100e4578063248a9ca31461010c5780632f2ff15d1461013d575b600080fd5b6100f76100f2366004610e74565b61024a565b60405190151581526020015b60405180910390f35b61012f61011a366004610eb6565b60009081526020819052604090206001015490565b604051908152602001610103565b61015061014b366004610ef8565b6102e3565b005b610150610160366004610ef8565b61030e565b6101506103c6565b60035461018d9073ffffffffffffffffffffffffffffffffffffffff1681565b60405173ffffffffffffffffffffffffffffffffffffffff9091168152602001610103565b60015460ff166100f7565b6101506103dd565b6100f76101d3366004610ef8565b60009182526020828152604080842073ffffffffffffffffffffffffffffffffffffffff93909316845291905290205460ff1690565b61012f600081565b61015061021f366004610f24565b6103f1565b610150610232366004610f24565b61079a565b610150610245366004610ef8565b6107ee565b60007fffffffff0000000000000000000000000000000000000000000000000000000082167f7965db0b0000000000000000000000000000000000000000000000000000000014806102dd57507f01ffc9a7000000000000000000000000000000000000000000000000000000007fffffffff000000000000000000000000000000000000000000000000000000008316145b92915050565b6000828152602081905260409020600101546102ff8133610814565b61030983836108e4565b505050565b73ffffffffffffffffffffffffffffffffffffffff811633146103b8576040517f08c379a000000000000000000000000000000000000000000000000000000000815260206004820152602f60248201527f416363657373436f6e74726f6c3a2063616e206f6e6c792072656e6f756e636560448201527f20726f6c657320666f722073656c66000000000000000000000000000000000060648201526084015b60405180910390fd5b6103c282826109d4565b5050565b60006103d28133610814565b6103da610a8b565b50565b60006103e98133610814565b6103da610b6c565b600280540361045c576040517f08c379a000000000000000000000000000000000000000000000000000000000815260206004820152601f60248201527f5265656e7472616e637947756172643a207265656e7472616e742063616c6c0060448201526064016103af565b6002805560015460ff16156104cd576040517f08c379a000000000000000000000000000000000000000000000000000000000815260206004820152601060248201527f5061757361626c653a207061757365640000000000000000000000000000000060448201526064016103af565b60408051600c8082526101a08201909252600091602082016101808036833701905050905060018160008151811061050757610507610f6e565b60200260200101818152505060028160018151811061052857610528610f6e565b60200260200101818152505060038160028151811061054957610549610f6e565b60200260200101818152505060058160038151811061056a5761056a610f6e565b60200260200101818152505060068160048151811061058b5761058b610f6e565b6020026020010181815250506007816005815181106105ac576105ac610f6e565b6020026020010181815250506008816006815181106105cd576105cd610f6e565b602002602001018181525050600a816007815181106105ee576105ee610f6e565b602002602001018181525050600c8160088151811061060f5761060f610f6e565b602002602001018181525050600d8160098151811061063057610630610f6e565b602002602001018181525050600f81600a8151811061065157610651610f6e565b602002602001018181525050601181600b8151811061067257610672610f6e565b6020908102919091010152805160008167ffffffffffffffff81111561069a5761069a610f3f565b6040519080825280602002602001820160405280156106c3578160200160208202803683370190505b50905060005b828110156107025760018282815181106106e5576106e5610f6e565b6020908102919091010152806106fa81610fcc565b9150506106c9565b6003546040517f1f7fdffa00000000000000000000000000000000000000000000000000000000815273ffffffffffffffffffffffffffffffffffffffff90911690631f7fdffa9061075c9088908890879060040161103f565b600060405180830381600087803b15801561077657600080fd5b505af115801561078a573d6000803e3d6000fd5b5050600160025550505050505050565b60006107a68133610814565b50600380547fffffffffffffffffffffffff00000000000000000000000000000000000000001673ffffffffffffffffffffffffffffffffffffffff92909216919091179055565b60008281526020819052604090206001015461080a8133610814565b61030983836109d4565b60008281526020818152604080832073ffffffffffffffffffffffffffffffffffffffff8516845290915290205460ff166103c25761086a8173ffffffffffffffffffffffffffffffffffffffff166014610c2a565b610875836020610c2a565b6040516020016108869291906110cc565b604080517fffffffffffffffffffffffffffffffffffffffffffffffffffffffffffffffe0818403018152908290527f08c379a00000000000000000000000000000000000000000000000000000000082526103af9160040161114d565b60008281526020818152604080832073ffffffffffffffffffffffffffffffffffffffff8516845290915290205460ff166103c25760008281526020818152604080832073ffffffffffffffffffffffffffffffffffffffff85168452909152902080547fffffffffffffffffffffffffffffffffffffffffffffffffffffffffffffff001660011790556109763390565b73ffffffffffffffffffffffffffffffffffffffff168173ffffffffffffffffffffffffffffffffffffffff16837f2f8788117e7eff1d82e926ec794901d17c78024a50270940304540a733656f0d60405160405180910390a45050565b60008281526020818152604080832073ffffffffffffffffffffffffffffffffffffffff8516845290915290205460ff16156103c25760008281526020818152604080832073ffffffffffffffffffffffffffffffffffffffff8516808552925280832080547fffffffffffffffffffffffffffffffffffffffffffffffffffffffffffffff0016905551339285917ff6391f5c32d9c69d2a47ea670b442974b53935d1edc7fd64eb21e047a839171b9190a45050565b60015460ff16610af7576040517f08c379a000000000000000000000000000000000000000000000000000000000815260206004820152601460248201527f5061757361626c653a206e6f742070617573656400000000000000000000000060448201526064016103af565b600180547fffffffffffffffffffffffffffffffffffffffffffffffffffffffffffffff001690557f5db9ee0a495bf2e6ff9c91a7834c1ba4fdd244a5e8aa4e537bd38aeae4b073aa335b60405173ffffffffffffffffffffffffffffffffffffffff909116815260200160405180910390a1565b60015460ff1615610bd9576040517f08c379a000000000000000000000000000000000000000000000000000000000815260206004820152601060248201527f5061757361626c653a207061757365640000000000000000000000000000000060448201526064016103af565b600180547fffffffffffffffffffffffffffffffffffffffffffffffffffffffffffffff0016811790557f62e78cea01bee320cd4e420270b5ea74000d11b0c9f74754ebdbfc544b05a25833610b42565b60606000610c3983600261119e565b610c449060026111db565b67ffffffffffffffff811115610c5c57610c5c610f3f565b6040519080825280601f01601f191660200182016040528015610c86576020820181803683370190505b5090507f300000000000000000000000000000000000000000000000000000000000000081600081518110610cbd57610cbd610f6e565b60200101907effffffffffffffffffffffffffffffffffffffffffffffffffffffffffffff1916908160001a9053507f780000000000000000000000000000000000000000000000000000000000000081600181518110610d2057610d20610f6e565b60200101907effffffffffffffffffffffffffffffffffffffffffffffffffffffffffffff1916908160001a9053506000610d5c84600261119e565b610d679060016111db565b90505b6001811115610e04577f303132333435363738396162636465660000000000000000000000000000000085600f1660108110610da857610da8610f6e565b1a60f81b828281518110610dbe57610dbe610f6e565b60200101907effffffffffffffffffffffffffffffffffffffffffffffffffffffffffffff1916908160001a90535060049490941c93610dfd816111f3565b9050610d6a565b508315610e6d576040517f08c379a000000000000000000000000000000000000000000000000000000000815260206004820181905260248201527f537472696e67733a20686578206c656e67746820696e73756666696369656e7460448201526064016103af565b9392505050565b600060208284031215610e8657600080fd5b81357fffffffff0000000000000000000000000000000000000000000000000000000081168114610e6d57600080fd5b600060208284031215610ec857600080fd5b5035919050565b803573ffffffffffffffffffffffffffffffffffffffff81168114610ef357600080fd5b919050565b60008060408385031215610f0b57600080fd5b82359150610f1b60208401610ecf565b90509250929050565b600060208284031215610f3657600080fd5b610e6d82610ecf565b7f4e487b7100000000000000000000000000000000000000000000000000000000600052604160045260246000fd5b7f4e487b7100000000000000000000000000000000000000000000000000000000600052603260045260246000fd5b7f4e487b7100000000000000000000000000000000000000000000000000000000600052601160045260246000fd5b60007fffffffffffffffffffffffffffffffffffffffffffffffffffffffffffffffff8203610ffd57610ffd610f9d565b5060010190565b600081518084526020808501945080840160005b8381101561103457815187529582019590820190600101611018565b509495945050505050565b73ffffffffffffffffffffffffffffffffffffffff8416815260806020820152600061106e6080830185611004565b82810360408401526110808185611004565b8381036060909401939093525050600081526020019392505050565b60005b838110156110b757818101518382015260200161109f565b838111156110c6576000848401525b50505050565b7f416363657373436f6e74726f6c3a206163636f756e742000000000000000000081526000835161110481601785016020880161109c565b7f206973206d697373696e6720726f6c6520000000000000000000000000000000601791840191820152835161114181602884016020880161109c565b01602801949350505050565b602081526000825180602084015261116c81604085016020870161109c565b601f017fffffffffffffffffffffffffffffffffffffffffffffffffffffffffffffffe0169190910160400192915050565b6000817fffffffffffffffffffffffffffffffffffffffffffffffffffffffffffffffff04831182151516156111d6576111d6610f9d565b500290565b600082198211156111ee576111ee610f9d565b500190565b60008161120257611202610f9d565b507fffffffffffffffffffffffffffffffffffffffffffffffffffffffffffffffff019056fea164736f6c634300080d000a",
  "linkReferences": {},
  "deployedLinkReferences": {}
}